:020000040800F2
:10000000D80B0020E5050008E9030008EB03000811
:10001000EF030008F3030008F703000800000000E6
:10002000000000000000000000000000FB030008CA
:10003000FD03000800000000FF03000801040008A1
:10004000FF050008FF050008FF050008FF05000880
:10005000FF050008FF050008FF050008FF05000870
:10006000FF050008FF050008FF050008FF05000860
:10007000FF050008FF050008FF050008FF05000850
:10008000FF050008FF050008FF050008FF05000840
:10009000FF050008FF050008FF050008FF05000830
:1000A000FF050008FF050008FF050008FF05000820
:1000B000FF05000865020008C3020008FF050008EC
:1000C000FF050008FF050008FF050008FF05000800
:1000D000FF050008FF050008D93C0008FF050008DF
:1000E0003B020008FF050008FF050008FF050008A7
:1000F000FF050008FF050008FF050008FF050008D0
:10010000FF050008FF0500087B020008FF05000846
:10011000FF050008FF050008FF050008FF050008AF
:10012000FF050008FF050008FF050008FF0500089F
:10013000DFF80CD005F02EFE00480047C70100088C
:10014000D80B002070B59CB00446214601A803F0EE
:1001500010FE9DF86D00002833DD81A101A805F097
:1001600034FB58B90DF1090005F0CAFB85B22846E9
:1001700003F0D5FA7BA006F06BF822E07EA101A87F
:1001800005F023FB18B97DA006F062F819E080A104
:1001900001A805F01AFBA0B99DF86D00022810DB3C
:1001A0000DF1130005F0ACFB85B20DF1090005F06F
:1001B000A7FBC6B22946304603F0CBF975A006F07E
:1001C00047F81CB070BD03F051F84FF4A06000F088
:1001D0001BFA4FF4165003F01BFD4FF4E13005F00D
:1001E00079F941F61F4141F2883003F0EFFA03F04C
:1001F0001FFB03F0F5F903F00FF903F055FA04F0D3
:10020000B4FE05F08BFA01206749086005F0E7F9B4
:1002100000206649C1F88C0104F050FF64A006F08C
:1002200017F809E0012003F017FB044604F092FFE1
:10023000AFF2EF0003F08DFDF4E710B55A4824301B
:10024000006808B9012000E0002057492431086007
:1002500059480068401C584908604FF4004000F0BD
:10026000DEFE10BD10B50121544802F0E6FD18B1C4
:100270000121524802F0F2FD10BD10B50121504895
:1002800002F0DBFDE0B14F4800684F4908404D499E
:10029000086045480C30006808B9012000E00020E3
:1002A00041490C3108600020434908604548006816
:1002B00040F40040434908600121414802F0CEFD6E
:1002C00010BD10B50121414802F0B7FD002846D00D
:1002D0003F480068407E04283DD13D4800680069E1
:1002E000282803DA3A480068006900E0002038490D
:1002F00009680861364800680069401C344909688B
:10030000086133490968087C3249098803F021F9FA
:10031000642005F009FA04462D4800682246016968
:100320002DA005F095FF642005F0FEF9044628494C
:100330000968087C214605F042F92A48006804F063
:10034000B2FE19482830006808B9012000E00020FA
:1003500015492831086001211C4802F07FFD10BDBD
:100360004800000048534D50333831362052656301
:1003700065697665640D0A0050000000504534330D
:100380003530332052656365697665640D0A000077
:1003900041000000414439383534205265636569B5
:1003A0007665640D0A0000008C81224200802242A2
:1003B0006F6B210D0A0000000000002000040040C7
:1003C000000C004000040140FF7F0F0000080040C7
:1003D0005000002054000020532025642025640D87
:1003E0000A0000004C000020704700BFFEE700BF7D
:1003F000FEE700BFFEE700BFFEE7704770477047AB
:10040000704700000CB50020019000906C48006817
:1004100040F480306A49086000BF6948006800F411
:10042000003000900198401C0190009818B9019884
:10043000B0F5A06FF1D16248006800F4003010B14F
:100440000120009001E0002000900098012843D195
:100450005C48006840F010005A490860084600688F
:1004600020F0030008600846006840F002000860C1
:10047000534840685249486008464068486008460A
:10048000406840F4806048600846406820F47C1072
:1004900048600846406840F4E81048600846006834
:1004A00040F08070086000BF4548006800F00070B0
:1004B0000028F9D04248406820F0030040494860D5
:1004C0000846406840F00200486000BF3C48406871
:1004D00000F00C000828F9D10CBD10B5FFF792FF11
:1004E00010BD10B53648006840F00100344908607E
:1004F0000846406834490840314948600846006869
:10050000324908402E4908600846006820F48020DF
:1005100008600846406820F4FE0048604FF41F0061
:100520008860FFF7DAFF4FF000602949086010BDCE
:1005300010B5002100200022214B5B6803F00C0164
:1005400021B1042906D0082928D107E0214B224CEB
:10055000236027E01F4B204C236023E0184B5B688F
:1005600003F47010164B5B6803F48032022303EB34
:10057000904022B9194B4343174C23600DE0104BB8
:100580005B6803F4003323B1144B4343124C2360E4
:1005900003E0104B4343104C236003E00D4B0E4C23
:1005A000236000BF00BF064B5B68C3F303130C4C12
:1005B000E15C094B1B68CB40074C236010BD000079
:1005C00000100240002002400000FFF8FFFFF6FE8E
:1005D00008ED00E000127A000400002000093D0050
:1005E000080000200648804706480047FEE7FEE76F
:1005F000FEE7FEE7FEE7FEE7FEE7FEE7FEE7FEE7D3
:10060000E30400083101000831490143314A116017
:10061000704770B5002100230F22C47804B32D4C1D
:10062000246804F4E064C4F5E064210AC1F1040321
:10063000CA40447804FA03F1847814402143090144
:10064000254C0678A155047804F01F050124AC4020
:1006500005786D11AD0005F1E025C5F8004109E010
:10066000047804F01F050124AC401C4D0678761177
:1006700045F8264070BD1A4A0A400243154B1B1F1D
:100680001A60704739B1134A121D12680243114BA8
:100690001B1D1A6006E00F4A121D126882430D4BA3
:1006A0001B1D1A607047042808D14FF0E02109692A
:1006B00041F004014FF0E022116107E04FF0E0212A
:1006C000096921F004014FF0E02211617047000038
:1006D0000000FA050CED00E000E400E080E100E03D
:1006E00080FFFF1F10B50446FA48844208D101215B
:1006F000401501F0D9FA0021601501F0D5FA17E094
:10070000F548844208D10121001501F0CDFA0021FD
:10071000201501F0C9FA0BE0F048844208D101210C
:10072000C80301F0C1FA00214FF4004001F0BCFA07
:1007300010BD30B50246002000235068E84C204030
:100740000D790C6844EA0524204350609068E54C1C
:100750002040D1E902542C434D7944EA450420431A
:100760009060D06A20F470000C7C641EE4B22343D5
:1007700040EA0350D06230BD002101600171417137
:100780008160C16001210174704721B1826842F02B
:100790000102826003E0826822F0010282607047F9
:1007A00021B1826842F48072826003E0826822F4A0
:1007B00080728260704710B50023CBB21AB14468D2
:1007C0001C43446002E044689C43446010BD81685F
:1007D00041F0080181607047014600208A6802F0FC
:1007E00008020AB1012000E000207047816841F052
:1007F000040181607047014600208A6802F004020B
:100800000AB1012000E00020704721B1826842F463
:10081000A002826003E0826822F4A0028260704736
:10082000014600208A6802F480020AB1012000E03B
:100830000020704710B50A4600210023416821F4CA
:100840006041531E41EA4331416010BD21B142680D
:1008500042F40062426003E0426822F400624260B7
:100860007047F0B504460D4600200021092D11DD2A
:10087000E068A5F10A0606EB4607072606FA07F127
:100880008843A5F10A0606EB460603FA06F108437B
:10089000E0600CE0206905EB4507072606FA07F142
:1008A000884305EB450603FA06F108432061072A51
:1008B0000FDA606B561E06EB86071F2606FA07F155
:1008C0008843561E06EB860605FA06F10843606368
:1008D00022E00D2A0FDA206BD61F06EB86071F26B3
:1008E00006FA07F18843D61F06EB860605FA06F1DD
:1008F0000843206310E0E06AA2F10D0606EB8607CC
:100900001F2606FA07F18843A2F10D0606EB8606BC
:1009100005FA06F10843E062F0BD21B1826842F4B5
:100920008012826003E0826822F480128260704745
:100930000146C86C80B2704766484C30006870470A
:1009400021B1426842F48062426003E0426822F4CE
:1009500080624260704721B1426842F48052426036
:1009600003E0426822F48052426070470A46002148
:10097000816821F4E04111438160704721B18268B0
:1009800042F40042826003E0826822F40042826006
:10099000704721B1826842F40212826003E08268EB
:1009A00022F4021282607047014600208A6802F435
:1009B00000120AB1012000E000207047F0B50446A3
:1009C0001546002000220026092911DDE068A1F16A
:1009D0000A0707EB470C072707FA0CF29043A1F12F
:1009E0000A0707EB470703FA07F21043E0600CE041
:1009F000206901EB410C072707FA0CF2904301EB49
:100A0000410703FA07F210432061A06BC0F30156BF
:100A1000EF1C06F1010CA7EB0C0707EB870C1F2757
:100A200007FA0CF29043EF1C06F1010CA7EB0C0740
:100A300007EB870701FA07F21043A063F0BD10B57A
:100A40000A4600210023816B21F44011531E41EA24
:100A50000351816310BD08B5002300930090009BF3
:100A60000B440093009B1A6008BD08B502460020A5
:100A70000090009201F12800009B1844009000981B
:100A8000006880B208BD0A4600214168164B194033
:100A90001143416070474162826270470A460021FB
:100AA000416821F01F0111434160704740B109497D
:100AB0000831096841F40001064A0832116007E074
:100AC00004490831096821F40001024A0832116022
:100AD000704700000024014000280140003C014014
:100AE000FFFEF0FFFDF7F1FFFFFD3FFF0246002094
:100AF00013680B400BB1012000E000207047CA438F
:100B00000260704770B502460020002300240B12DB
:100B10005568CEB205EA060415681D4015B10CB142
:100B2000012000E0002070BD00220A12D3430360C0
:100B30007047000010B50121480701F0C2F80021FC
:100B40004FF0005001F0BDF810BD30B50022002379
:100B50005A4C226840F6FE748440A243D1E9004515
:100B60002C438D682C43CD6844EA050303FA00F456
:100B70002243524C226030BD0021016041608160FF
:100B8000C160704739B14D4A1268012383401A434E
:100B90004A4B1A6006E0494A1268012383409A438F
:100BA000464B1A60704741B1444A12684FF4805373
:100BB00083401A43414B1A6007E0404A12684FF4E1
:100BC000805383409A433D4B1A60704710B551B132
:100BD0003A4A121D126804090123A3401A43374BF5
:100BE0001B1D1A6009E0354A121D12680409012311
:100BF000A3409A43314B1B1D1A6010BD40B12F49D1
:100C0000091D096841F003012C4A121D116007E01B
:100C10002A49091D096821F00301284A121D1160A3
:100C2000704710B53AB1254B1B6801FA00F4234315
:100C3000224C236006E0214B1B6801FA00F4A34319
:100C40001E4C236010BD08B5002200921B4A009282
:100C500000F10802009B1A440092009A116008BD3E
:100C600008B500220092154A009200F11402009B80
:100C70001A440092009A116008BD30B50024002388
:100C8000082802D142EA012401E042EA01440B4B68
:100C900000F120052B441C6030BD08B50146002042
:100CA0000090064800902C2000EB9100009A104420
:100CB00000900098006880B208BD000000740040F9
:100CC00001684FF6FE721140016000210160416031
:100CD0008160C1608D49884208D18C4908394968D2
:100CE00041F00F01894A083A51608AE0874914317E
:100CF000884208D185490839496841F0F001834AA2
:100D0000083A51607DE081492831884208D17F4905
:100D10000839496841F470617C4A083A516070E0D2
:100D20007A493C31884208D178490839496841F408
:100D30007041764A083A516063E074495031884204
:100D400008D172490839496841F470216F4A083A5C
:100D5000516056E06D496431884208D16B490839C9
:100D6000496841F47001694A083A516049E06749AD
:100D70007831884208D165490839496841F0706185
:100D8000624A083A51603CE06149884206D1011F3D
:100D9000096841F00F01021F116032E05C49143113
:100DA000884208D15A49091F096841F0F001584AA0
:100DB000121F116025E056492831884208D1544954
:100DC000091F096841F47061514A121F116018E04F
:100DD0004F493C31884208D14D49091F096841F407
:100DE00070414B4A121F11600BE049495031884253
:100DF00007D14749091F096841F47021444A121F6D
:100E00001160704710B50022026847F6F0739A43EC
:100E10000C6A8B6823430C6923434C6923438C6918
:100E20002343CC6923434C6A23438C6A23431A43EC
:100E30000260CB6843600B6883604B68C36010BD81
:100E40000021016041608160C16001614161816197
:100E5000C161016241628162704721B1026842F062
:100E60000102026004E002684FF6FE731A4002605D
:100E700070471AB103680B43036002E003688B43B9
:100E800003607047416070470146486880B2704710
:100E900001460020002201F080531BB11C4B083B8F
:100EA0001A6802E0194B083B1A6802EA01030BB109
:100EB000012000E00020704700F0805119B1144972
:100EC000091F086002E0114908394860704701466F
:100ED0000020002201F080531BB10D4B083B1A6823
:100EE00002E00A4B083B1A6802EA01030BB1012039
:100EF00000E00020704700F0805119B10449091F3B
:100F0000086002E001490839486070470800024063
:100F100008040240002044490860091D0860091DBA
:100F20000860091D086041483F4914310860704756
:100F300000213D498279002A3AD00A4612680368A6
:100F40009A430B461A600A1D126803689A430B1DE8
:100F50001A60027911440A6803681A430A60324A27
:100F60000832126803689A432F4B08331A601A1D1F
:100F7000126803689A432C4B0C331A604279102A8A
:100F80000ED11A1F126803681A43274B08331A60E0
:100F90001A1D126803681A43234B0C331A600DE0C4
:100FA0002149427911440A6803681A430A6005E03E
:100FB000027911440A6803689A430A607047002165
:100FC000016001710C214171002181717047164946
:100FD000103109680143144A10321160704701460C
:100FE0000020114A143212680A400AB1012000E0C0
:100FF000002070470C4914310860704701460020FA
:101000000022094B1B6803EA0102074B14331B68DB
:101010000B4013B10AB1012000E0002070470249E3
:10102000143108607047000000040140FFFF0F000A
:1010300030B943F2DB028100A1F1C0410A6005E052
:1010400043F2D2028100A1F1C0410A606FF0704208
:10105000411C8900A1F1C0410A608100A1F1C04199
:10106000C1F80421704710280AD118214FF02042FE
:101070001166402151664FF0FC319166D16610E057
:101080001821F74A116040214FF02042C2F8841025
:101090004FF0FC31F24A083211604FF02042C2F8A2
:1010A0008C1070471820EE49203108600020090696
:1010B000C1F8A4004FF0FC30E94928310860091D4F
:1010C0000860091D08607047D0E901121143C26829
:1010D0001143026911434269114382691143C26994
:1010E0001143026A1143426A1143826A1143C26A80
:1010F0001143026B114302689200A2F1C0421160D9
:10110000816808290BD101688900A1F1C0410968F3
:1011100041F0400201688900A1F1C0410A60416BC1
:101120000968426B526841EA0211426B926841EAD7
:101130000221426B928941EA0241426B128A41EAE2
:101140000251426B127D41EA0261426B9269114386
:101150000268521C9200A2F1C0421160C16AB1F54E
:10116000804F1BD1816B0968826B526841EA021182
:10117000826B926841EA0221826B128A41EA025133
:10118000826B127D41EA0261826B926911430268AF
:101190009200A2F1C042C2F8041107E06FF0704261
:1011A00001688900A1F1C041C1F80421704730B540
:1011B000002100220023446844F0080485682C4381
:1011C000C5682C4305692C43456944EA4524856973
:1011D00044EA4531C4692468C5696D6844EA052458
:1011E000C5692D8944EA0544C5692D7B44EA056239
:1011F000046A2468056A6D6844EA0524056A2D8935
:1012000044EA0544056A2D7B44EA05630468102C12
:1012100005D14FF020442166A266E36608E0904CB9
:1012200021604FF02044C4F888208D4C0C3423609A
:1012300030BD016841F01001426841EA42218268F4
:1012400041EA4231864A20321160C1680968C268A9
:10125000526841EA0221C268128941EA0241C26829
:10126000127B41EA02617E4A2832116001690968F5
:101270000269526841EA02210269128941EA024187
:101280000269127B41EA0261754A2C3211604169A0
:1012900009684269526841EA02214269128941EAB9
:1012A00002414269127B41EA02614FF02042C2F8DA
:1012B000B01070470021016002214160002181606F
:1012C000C160016141618161C16101624FF480517E
:1012D0004162490081620021C16201630F21426BBA
:1012E0001160426B5160FF21426B91600F21426B94
:1012F000D160426B1161426B51610021426B91617F
:101300000F21826B1160826B5160FF21826B9160B3
:101310000F21826BD160826B1161826B5161002160
:10132000826B9161704710210160002141608160F2
:10133000C160016141618161FC21C2691160C269C2
:101340005160C2699160C269D160026A1160026A2B
:101350005160026A9160026AD160704700210160A9
:1013600041608160FC21C2681160C2685160C2683E
:101370009160C268D16002691160026951600269BE
:1013800091600269D16042691160426951604269AD
:1013900091604269D160704751B18200A2F1C042B0
:1013A000126842F001038200A2F1C042136009E01A
:1013B0008200A2F1C04212682A4B1A408300A3F1B6
:1013C000C0431A60704799B1102808D14FF02042ED
:1013D000126E42F004024FF020431A661DE0204ACC
:1013E000126842F004024FF02043C3F8802014E05A
:1013F000102809D14FF02042126E1A4BDB1E1A4002
:101400004FF020431A6608E0154A1268154BDB1EA0
:101410001A404FF02043C3F88020704748B110496C
:101420002031096841F004014FF02042C2F8A010B9
:1014300009E00B49203109680A4AD21E11404FF0D9
:101440002042C2F8A0107047B9B110280CD14FF05B
:101450002042126E42F040024FF020431A661FE015
:10146000800000A0FEFF0F00724A126842F04002A6
:101470004FF02043C3F8802012E0102808D14FF02D
:101480002042126E6C4B1A404FF020431A6607E060
:10149000684A1268684B1A404FF02043C3F8802016
:1014A000704701460020102903D14FF02042506FB1
:1014B00002E0604A14321068704710B5F2B110288B
:1014C00007D14FF020435B6E0B434FF0204463661F
:1014D00032E0B0F5807F08D1564B1B1D1B680B43D3
:1014E0004FF02044C4F8843026E0524B24331B686C
:1014F0000B434FF02044C4F8A4301DE0102807D15E
:101500004FF020435B6E8B434FF02044636613E043
:10151000B0F5807F08D1474B1B1D1B688B434FF0F4
:101520002044C4F8843007E0424B24331B688B43CB
:101530004FF02044C4F8A43010BD10B5024600207E
:101540000023102A03D14FF02044636E09E0B2F566
:10155000807F03D1374C241D236802E0354C2434AE
:10156000236803EA01040CB1012000E0002010BD53
:10157000102807D14FF02042526E8A434FF020438B
:101580005A6613E0B0F5807F08D12A4A121D12680E
:101590008A434FF02043C3F8842007E0254A2432D1
:1015A00012688A434FF02043C3F8A420704770B5F7
:1015B00002460020002300240025102A03D14FF00A
:1015C0002046736E09E0B2F5807F03D1194E361DB7
:1015D000336802E0174E2436336803EA010403EA55
:1015E000D10514B10DB1012000E0002070BD10281C
:1015F00008D14FF02042526E22EAD1024FF0204330
:101600005A6615E0B0F5807F09D10A4A121D1268AA
:1016100022EAD1024FF02043C3F8842008E0054AB3
:101620002432126822EAD1024FF02043C3F8A420EA
:1016300070470000800000A0BFFF0F0010B50446F7
:10164000CC48844208D10121042000F02DFB002168
:10165000042000F029FB46E0C748844208D101215C
:10166000082000F021FB0021082000F01DFB3AE0DB
:10167000C248844208D10121102000F015FB00214E
:10168000102000F011FB2EE0BD48844208D101215A
:10169000202000F009FB0021202000F005FB22E0C3
:1016A000B848844208D10121402000F0FDFA002111
:1016B000402000F0F9FA16E0B348844208D1012135
:1016C000802000F0F1FA0021802000F0EDFA0AE01D
:1016D000AE48844207D10121801500F0E5FA0021CF
:1016E000A01500F0E1FA10BD10B50121084600F088
:1016F000DBFA0021012000F0D7FA10BD2DE9F041FE
:10170000024600250026002000230024002791F82F
:1017100003C00CF00F0591F803C00CF0100CBCF1E5
:10172000000F03D091F802C04CEA050591F800C003
:10173000BCF1000F31D0146800202BE04FF0010CF9
:101740000CFA00F3B1F800C00CEA03069E4220D167
:1017500083004FF00F0C0CFA03F7BC4305FA03FCAF
:101760004CEA040491F803C0BCF1280F06D14FF0F5
:10177000010C0CFA00FCC2F814C00AE091F803C096
:10178000BCF1480F05D14FF0010C0CFA00FCC2F877
:1017900010C0401C0828D1D31460B1F800C0BCF1BF
:1017A000FF0F34DD546800202EE000F1080C4FF0EC
:1017B000010808FA0CF3B1F800C00CEA03069E42D7
:1017C00021D183004FF00F0C0CFA03F7BC4305FA4C
:1017D00003FC4CEA040491F803C0BCF1280F05D1C6
:1017E00000F1080C08FA0CF8C2F8148091F803C054
:1017F000BCF1480F07D100F1080C4FF0010808FABE
:101800000CF8C2F81080401C0828CED35460BDE804
:10181000F0814FF6FF710180022181700421C170B7
:1018200070470246002093680B400BB1012000E096
:10183000002070470146886880B270470246002049
:10184000D3680B400BB1012000E000207047014637
:10185000C86880B2704701617047416170470AB142
:10186000016100E041617047C16070474FF4803210
:101870000A4382618161826182698269704702469E
:101880000020434B18684FF68073184040EA02105E
:1018900008433F4B186070473E49C8617047F0B538
:1018A0000A46002300240021002500F00046B6F17E
:1018B000004F02D1364EF16901E0354E7168C0F338
:1018C000034583B200F44016B6F5401F08D121F05D
:1018D00070612F4E766826F070662D4F7E6012E0A4
:1018E00000F48016B6F5801F06D1032606FA05F42B
:1018F000A14341F0706106E0460D360103FA06F699
:10190000B14341F0706122B1460D360103FA06F68B
:10191000314300F00046B6F1004F02D11C4EF16198
:1019200001E01B4E7160F0BD30B500228B071C0F2B
:101930000F2303FA04F2164B08338C1053F82430AB
:101940009343134C08348D1044F8253023468C10F3
:1019500053F824308C07240F00FA04F423430C4C72
:1019600008348D1044F8253030BD0A49DC31086058
:101970007047000000080140000C014000100140C9
:101980000014014000180140001C014000200140EB
:101990000000014000002042DF48006840F00100E4
:1019A000DD49086008464068DC490840DA4948607B
:1019B00008460068DA490840D749086008460068C8
:1019C00020F4802008600846406820F4FE0048604B
:1019D0004FF41F0088607047CF49096821F48031B7
:1019E000CD4A11601146096821F480211160B0F5DB
:1019F000803F03D0B0F5802F0ED106E0C6490968BC
:101A000041F48031C44A116007E0C349096841F4D8
:101A1000A021C14A116000E000BF00BF704710B5AF
:101A200001460022002300204A11012A02D1BA4CAB
:101A3000236806E0022A02D1B74C236A01E0B64CC3
:101A4000636A01F01F02012494401C400CB1012084
:101A500000E0002010BD38B50020009000240025D3
:101A600000BF3120FFF7DBFF05460098401C0090C7
:101A70000098B0F5A06F01D0002DF2D03120FFF713
:101A8000CEFF08B1012400E00024204638BD014605
:101A90000020A14A106820F0F80040EAC100106060
:101AA0007047A04908607047024600209A4B58686A
:101AB00020F47C1042EA01031843974B58607047AA
:101AC00098490866704701460020934A506820F004
:101AD00003000843506070478F48406800F00C00D6
:101AE0007047014600208C4A506820F0F0000843FF
:101AF0005060704701460020874A506820F4E0603B
:101B000008435060704701460020834A506820F423
:101B1000605040EAC1005060704729B17E4A527A55
:101B200002437D4B5A7204E07B4A527A82437A4BDD
:101B30005A7270477B49D8310860704701460020CF
:101B4000754A506820F440400843506070470021B7
:101B5000714A20321170704A82F82010012802D098
:101B600004280AD104E001216B4A2032117005E0FB
:101B70000521694A2032117000E000BF00BF7047A4
:101B80006949086070476449096A0143624A116201
:101B90007047654944390860704730B5002100221C
:101BA000002400235C4D6D6805F00C0121B104296F
:101BB00005D0082923D105E05C4D056022E05B4D8E
:101BC00005601FE0544D6D6805F47012524D6D684C
:101BD00005F48034022505EB92421CB9544D55435F
:101BE00005600BE04C4D6D6805F400351DB1504D9E
:101BF0005543056002E04D4D5543056002E04B4DF5
:101C0000056000BF00BF444D6D6805F0F001090993
:101C1000484D6B5C0568DD4045603F4D6D6805F4DF
:101C2000E061090A434D6B5C4568DD4085603A4DD3
:101C30006D6805F46051C90A3E4D6B5C4568DD4036
:101C4000C560354D6D6805F44041890B3A4D6B5CBC
:101C5000C568B5FBF3F5056130BD29B12E4A52695F
:101C600002432D4B5A6104E02B4A526982432A4BAE
:101C70005A61704729B1284A92690243264B9A61FA
:101C800004E0254A92698243234B9A61704729B147
:101C9000214AD2690243204BDA6104E01E4AD2692C
:101CA00082431D4BDA61704729B11B4AD268024357
:101CB000194BDA6004E0184AD2688243164BDA60A6
:101CC000704729B1144A12690243134B1A6104E0A8
:101CD000114A12698243104B1A6170471249403908
:101CE000086070470F49C86470470B49C871704756
:101CF0000948406A40F080700749486270470146D1
:101D00000020054A92680A400AB1012000E0002044
:101D10007047014988727047001002400000FFF8C8
:101D2000FFFFF6FE000042428004424200127A00A9
:101D300000093D00180000202800002010B50446CE
:101D4000BE48844208D101218014FFF7ADFF002175
:101D5000A014FFF7A9FF16E0B948844208D1012179
:101D60000014FFF7AEFF00212014FFF7AAFF0AE0DE
:101D7000B448844207D10121C013FFF7A2FF00211C
:101D8000E013FFF79EFF10BD10B50022028802F499
:101D900041520B884C8823438C882343CC882343AF
:101DA0000C8923434C8923438C892343CC892343C7
:101DB0001A430280838B4FF2FF74234083830B8A84
:101DC000038210BD2DE9F04F85B005460C464FF05B
:101DD000000902274FF000084FF0010B0026B24621
:101DE000A88B4FF240010840A88302202884B5F850
:101DF0001C90A068022801D100BF38E0A08810B96B
:101E00004FF0010B01E04FF0020B8D48854200D1ED
:101E100000E000BF6846FFF7C0FEDDF800A0E088E4
:101E2000B0F5007F0AD14FEA1A2000EB8000400095
:101E3000A168B0FBF1F0401D86B20BE04FEA4B10F9
:101E4000BAFBF0F000EB80004000A168B0FBF1F0BD
:101E5000401D86B20A20B6FBF0F606F00108A6EB9C
:101E60000800C0F34F074FF6FF7000EA0828022F62
:101E700001DBFF2F02DD02274FF00008E08840EA77
:101E8000080038432884A088A18908436188084352
:101E90002188084340F4006040EA0909A5F81C9035
:101EA00005B0BDE8F08F0021018041808180C180B4
:101EB000018141818181C181072101827047002117
:101EC000018041808180C180022181600021818167
:101ED000704721B1028842F04002028004E002888B
:101EE0004FF6BF731A400280704721B1828B42F4D3
:101EF0008062828304E0828B4FF6FF331A40828334
:101F0000704730B5002400230C110125A540ABB269
:101F10001AB185881D43858002E085889D438580B0
:101F200030BD1AB183880B43838002E083888B43E2
:101F300083807047818170470146888970474FF6DA
:101F4000FF62914204D0028842F48072028004E071
:101F500002884FF6FF631A400280704721B18288E1
:101F600042F00402828004E082884FF6FB731A403C
:101F70008280704702884FF2FF731A400280028805
:101F80000A4302807047018841F480510180704704
:101F900021B1028842F40052028004E002884DF62A
:101FA000FF731A400280704702460020012901D0C9
:101FB000108B00E0908A70470146088A7047B1F59F
:101FC000804F04D1028842F48042028004E00288FB
:101FD0004BF6FF731A4002807047024600201389B7
:101FE0000B400BB1012000E000207047CA43028182
:101FF0007047F0B50246002000240023002501F0C0
:102000000F070126BE40B4B20B1101269E40B3B2A9
:10201000968806EA03051689264016B10DB10120FF
:1020200000E00020F0BD10B5002201F00F040123F4
:10203000A3409AB2D343038110BD00000030014099
:1020400000380040003C004010B50446FE48844281
:1020500008D10121C014FFF727FE0021E014FFF78B
:1020600023FEC4E0B4F1804F08D101210846FFF7F8
:1020700028FE00210120FFF724FEB8E0F348844247
:1020800008D101210220FFF71CFE00210220FFF7EA
:1020900018FEACE0EE48844208D101210420FFF78D
:1020A00010FE00210420FFF70CFEA0E0E948844266
:1020B00008D101210820FFF704FE00210820FFF7C6
:1020C00000FE94E0E448844208D101211020FFF78B
:1020D000F8FD00211020FFF7F4FD88E0DF4884427E
:1020E00008D101212020FFF7ECFD00212020FFF77F
:1020F000E8FD7CE0DA48844208D101214014FFF772
:10210000D3FD00216014FFF7CFFD70E0D548844275
:1021100009D10121C804FFF7C7FD00214FF40020B9
:10212000FFF7C2FD63E0D048844209D101210805D0
:10213000FFF7BAFD00214FF48010FFF7B5FD56E020
:10214000CA48844209D101214805FFF7ADFD0021AD
:102150004FF40010FFF7A8FD49E0C548844208D1BC
:1021600001214020FFF7ADFD00214020FFF7A9FD30
:102170003DE0C048844208D101218020FFF7A1FD45
:1021800000218020FFF79DFD31E0BB48844208D14B
:1021900001218015FFF795FD0021A015FFF791FDA6
:1021A00025E0B648844209D101210804FFF77CFDEF
:1021B00000214FF48030FFF777FD18E0B0488442EB
:1021C00009D101214804FFF76FFD00214FF40030D1
:1021D000FFF76AFD0BE0AB48844208D10121880477
:1021E000FFF762FD00214FF48020FFF75DFD10BD79
:1021F00000220288944B98420ED0994B98420BD003
:10220000B0F1804F08D0914B984205D0904B984246
:1022100002D0904B984204D14FF68F731A404B88EE
:102220001A438D4B984207D08C4B984204D04FF6FE
:10223000FF431A40CB881A4302808B8883850B8822
:102240000385814B98420BD0854B984208D08B4B2D
:10225000984205D08A4B984202D08A4B984201D1CD
:102260000B7A038601238382704770B50024002215
:102270000023058C4FF6FE7635400584028C83885A
:10228000048B4FF68F752C40B51E2C400D882C43C7
:10229000751E2A400D892A434D882A436A4DA8425B
:1022A0000BD06F4DA84208D0744DA84205D0744D94
:1022B000A84202D0734DA84213D14FF6F7752A40B9
:1022C0004D892A434FF6FB752A408D882A434FF6E5
:1022D000FF652B404FF6FF552B408D892B43CD8951
:1022E0002B4383800483CD888586028470BD70B5BE
:1022F000002400220023058C4FF6EF76354005843C
:10230000028C8388048B48F6FF752C404FF6FF45FE
:102310002C400D884FF6FF7606EA05252C434FF634
:10232000DF752A400D8906EA05152A434D8806EA1D
:1023300005152A43444DA84202D0494DA8421DD15B
:102340004FF67F752A404D894FF6FF7606EA051550
:102350002A434FF6BF752A408D8806EA05152A43A1
:102360004FF6FF352B404FF2FF752B408D8906EA63
:1023700085052B43CD8906EA85052B43838004839D
:10238000CD880587028470BD70B50024002200232B
:10239000058C4FF6FF6635400584028C8388848B5C
:1023A0004FF68F752C404FF6FC752C400D882C4352
:1023B0004FF6FF552A400D894FF6FF7606EA0525B0
:1023C0002A434D8806EA05252A431F4DA84202D01C
:1023D000234DA8421DD14FF2FF752A404D894FF67B
:1023E000FF7606EA05252A434FF6FF352A408D88F9
:1023F00006EA05252A434EF6FF752B404DF6FF757C
:102400002B408D8906EA05152B43CD8906EA051573
:102410002B4383808483CD888587028470BD70B50B
:10242000002200230024058C4EF6FF7635400584FB
:10243000038C8488828B48F6FF752A404FF6FF454F
:102440002A400D8820E00000002C014000040040DC
:1024500000080040000C0040001000400014004044
:1024600000340140004C0140005001400054014044
:1024700000180040001C00400020004000400140C7
:1024800000440140004801404FF6FF7606EA05256A
:102490002A434DF6FF752B400D8906EA05352B437F
:1024A0004D8806EA05352B43FA4DA84202D0FA4D75
:1024B000A84208D14BF6FF752C408D894FF6FF7668
:1024C00006EA85152C4384808283CD88A0F840508D
:1024D000038470BD828B4FF2FF331A408283828B5C
:1024E0004FF6FF7303EA01231A4382837047F0B566
:1024F0000C461546002200210026078C4EF6FF7C74
:1025000007EA0C070784828B018C4FF6FF7707EAF6
:10251000043640F6FF473A404FF6FF7707EA0527B3
:102520003A434FF6FF7707EA03373A43D94FB842A9
:102530000ED0D94FB8420BD0B0F1804F08D0D74F52
:10254000B84205D0D64FB84202D0D64FB84206D1D5
:102550004DF6FF77394046F48057394305E047F69A
:10256000FF57394044F48057394382830184F0BDDA
:10257000828B4FF6F3731A408283828B0A438283E5
:102580007047F0B50C461546002200210026078C46
:102590004FF6FF6C07EA0C070784828B018C4FF61D
:1025A000FF7707EA04264FF60C773A404FF6FF779D
:1025B00007EA03172F433A43B64FB8420ED0B64F3F
:1025C000B8420BD0B0F1804F08D0B44FB84205D01C
:1025D000B34FB84202D0B34FB84206D14FF6FF57BF
:1025E000394046F48077394305E04FF2FF573940D0
:1025F00044F48077394382830184F0BD028B4FF22B
:10260000FF331A400283028B4FF6FF7303EA012364
:102610001A4302837047F0B50C461546002200218C
:102620000026078C4FF6EF7C07EA0C070784028B25
:10263000018C4FF6FF7707EA041640F6FF473A4051
:102640004FF6FF7707EA03373A434FF6FF7707EA7B
:1026500005273A438F4FB8420ED08F4FB8420BD068
:10266000B0F1804F08D08D4FB84205D08C4FB842A2
:1026700002D08C4FB84206D14FF6DF77394046F092
:102680001007394305E04FF65F77394044F01007F3
:10269000394302830184F0BD028B4FF6F3731A4075
:1026A0000283028B0A4302837047F0B50C4615463D
:1026B00000220021068C4FF6FE773E400684028BF6
:1026C000018C4FF60C7632407E1C06EA03162E4330
:1026D0003243704EB0420ED06F4EB0420BD0B0F1CC
:1026E000804F08D06D4EB04205D06D4EB04202D042
:1026F0006C4EB04206D14FF6FD76314044F00106F3
:10270000314305E04FF6F576314044F001063143A0
:1027100002830184F0BD70B505460C465D488542D4
:102720000ED05D4885420BD0B5F1804F08D05B4894
:10273000854205D05A48854202D05A48854200D188
:1027400000E000BF208850B92389A288618828460C
:10275000FFF7ABFFE1882846FFF79EFF25E02088C2
:1027600004280AD12389A28861882846FFF753FFED
:10277000E1882846FFF742FF17E0208808280AD1A1
:102780002389A28861882846FFF7FBFEE188284656
:10279000FFF7EEFE09E02389A28861882846FFF74B
:1027A000A6FEE1882846FFF795FE70BD2DE9F041B1
:1027B00005460C4600260127608808B9022600E07D
:1027C0000026A088012801D1022700E001272088E7
:1027D000A0B92389A28861882846FFF766FFE188AF
:1027E0002846FFF759FF23893A4631462846FFF726
:1027F00012FFE1882846FFF701FF13E02389A28832
:1028000061882846FFF707FFE1882846FFF7F6FEB4
:1028100023893A4631462846FFF747FFE188284694
:10282000FFF73AFFBDE8F0810A884B881A438B888E
:102830001A43CB881A430B891A434B891A438B8955
:102840001A43A0F8442070474FF6FF7181800021A1
:102850000180C18041800172704700210180418068
:102860008180C180018141818181C18170470021C6
:1028700001804180012181800021C1800181704758
:102880000021018041808180C1800181418181815D
:1028900070470000002C014000340140000400405B
:1028A00000080040000C004021B1028842F0010203
:1028B000028004E002884FF6FE731A4002807047DF
:1028C00031B1B0F8442042F40042A0F8442005E0C1
:1028D000B0F84420C2F30E02A0F8442070471AB1A9
:1028E00083890B43838102E083898B438381704713
:1028F0008182704741EA0203A0F8483070471AB15C
:1029000083890B43838102E083898B4383817047F2
:1029100001894FF6F8721140018170470A46002183
:1029200001894FF68F73194011430181704730B50B
:1029300004460D4629462046FFF7F0FF208940F067
:102940000700208130BD2DE9F04104460D461646B2
:102950001F46602D06D13B46012231462046FFF737
:102960005AFE05E03B46012231462046FFF79DFE18
:1029700029462046FFF7D2FF208940F0070020813A
:10298000BDE8F08130B50C4600210189C9B24FF68F
:10299000FF7505EA0325154325432943018130BD11
:1029A0002DE9F04105460E46174698460024434659
:1029B0003A4631462846FFF7E5FF2C894FF6F87076
:1029C000044044F007044FF68F70044044F0700454
:1029D0002C81BDE8F081F0B504460D4616461F4631
:1029E0003B46324629462046FFF7CCFF208940F47B
:1029F00080402081F0BD0185828270470A46002117
:102A000001884FF68F731940114301807047F0B56C
:102A10000C4615461E460021002200230189028B28
:102A2000038C4FF6F877394021434FF6FC473A4084
:102A300040F201173A434FF6DD773B404FF6FF7700
:102A400007EA06172F433B43018102830384F0BD4D
:102A50000A460021018B4FF68F7319401143018301
:102A600070470A460021018B48F6FF7319404FF664
:102A7000FF7303EA02231943018370470A460021CA
:102A8000818B4FF68F7319401143818370470A463B
:102A90000021818B48F6FF7319404FF6FF7303EA5C
:102AA000022319438183704721B1028842F08002DA
:102AB000028004E002884FF67F731A40028070475C
:102AC00021B1828842F00402828004E082884FF6BD
:102AD000FB731A408280704721B1828842F008025D
:102AE000828004E082884FF6F7731A408280704734
:102AF00021B1828842F00102828004E082884FF690
:102B0000FE731A40828070470A460021018B4FF6FF
:102B1000F77319401143018370470A460021018B66
:102B20004FF2FF7319404FF6FF7303EA0223194374
:102B3000018370470A460021818B4FF6F7731940D5
:102B40001143818370470A460021818B4FF2FF7346
:102B500019404FF6FF7303EA02231943818370473C
:102B60000A460021018B4FF6FB7319401143018384
:102B700070470A460021018B4FF6FF3319404FF68C
:102B8000FF7303EA02231943018370470A460021B9
:102B9000818B4FF6FB7319401143818370470A46BE
:102BA0000021818B4FF6FF3319404FF6FF7303EA84
:102BB00002231943818370470A460021018B4FF697
:102BC0007F7319401143018370470A460021018B2E
:102BD000C1F30E014FF6FF7303EA02231943018389
:102BE00070470A460021818B4FF67F7319401143CD
:102BF000818370470A460021818BC1F30E014FF695
:102C0000FF7303EA02231943818370470A460021B8
:102C1000018C4FF6FD7319401143018470470A4639
:102C20000021018C4FF6F77319401143018470475E
:102C30000A460021018C4FF6DF7319404FF6FF73EF
:102C400003EA02131943018470470A460021018CEC
:102C50004FF67F7319404FF6FF7303EA02131943CF
:102C6000018470470A460021018C4FF6FF5319403A
:102C70004FF6FF7303EA02231943018470470A46A3
:102C80000021018C4FF2FF7319404FF6FF7303EAE6
:102C900002231943018470470A460021018C4DF636
:102CA000FF7319404FF6FF7303EA0233194301849F
:102CB000704730B5002301248C40A3B2048C9C43A0
:102CC0000484048C02FA01F5ADB22C43048430BDB7
:102CD00030B5002304248C40A3B2048C9C430484AC
:102CE000048C02FA01F5ADB22C43048430BD70B5FA
:102CF0000346002000241846183001258D40ACB250
:102D00001D8CA5431D8409B1082909D100EB610080
:102D1000056825F0700505600568154305600EE03F
:102D20000D1FC5F34E052844056825F4E0450560F0
:102D300005684FF6FF7606EA02263543056070BD4A
:102D400021B1028842F00202028004E002884FF6BC
:102D5000FD731A400280704721B1028842F00402DC
:102D6000028004E002884FF6FB731A40028070472D
:102D700021B1828842F08002828004E082884FF68E
:102D80007F731A408280704702884FF6F7731A40AB
:102D9000028002880A430280704782884FF68F7350
:102DA0001A40828082880A438280704702894FF6E7
:102DB000F8731A40028102890A430281704702892E
:102DC0004FF67F731A40028102890A4302817047DD
:102DD000818470478185704781867047018770477D
:102DE00081877047A0F84010704702884FF6FF4374
:102DF0001A40028002880A43028070470146888E8A
:102E000070470146088F70470146888F704701461A
:102E1000B1F8400070470146888C70470146088D24
:102E2000704702460020138A0B400BB1012000E0DE
:102E300000207047CA430282704730B50246002026
:102E400000230024158A05EA0103958905EA010497
:102E500013B10CB1012000E0002030BDCA43028252
:102E60007047000010B50446FB48844209D1012197
:102E70008803FEF719FF00214FF48040FEF714FF8E
:102E800032E0F648844209D101214804FEF719FFD7
:102E900000214FF40030FEF714FF25E0F048844293
:102EA00009D101218804FEF70CFF00214FF4802096
:102EB000FEF707FF18E0EB48844209D10121C8045E
:102EC000FEF7FFFE00214FF40020FEF7FAFE0BE0B4
:102ED000E548844208D101210805FEF7F2FE0021F1
:102EE0004FF48010FEF7EDFE10BD2DE9F04786B0DF
:102EF00005460E460024A24600BFA1460027B08921
:102F000000B100BF2F462C8A4CF6FF700440F088B9
:102F100004432C82AC894EF6F3100440B08831890A
:102F20000843718908430443AC81AC8A4FF6FF40E3
:102F30000440B0890443AC8201A8FEF72EFEC648C7
:102F4000874202D1DDF810A001E0DDF80CA0A889CD
:102F500000F4004040B10AEBCA0000EB0A103168EF
:102F60004900B0FBF1F807E00AEBCA0000EB0A10D9
:102F700031688900B0FBF1F86420B8FBF0F004017F
:102F80002009642101FB1089A88900F4004040B1A8
:102F9000322000EBC900B0FBF1F000F00700044361
:102FA00008E0322000EB09106421B0FBF1F000F0E2
:102FB0000F0004432C8106B0BDE8F0874FF4165192
:102FC000016000218180C18001810C2141810021AB
:102FD0008181704710B502460020108A4FF2FF032E
:102FE00018400B884C8823438C882343CC88234388
:102FF0001843108210BD0021018041808180C18072
:10300000704721B1828942F40052828104E08289B2
:103010004DF6FF731A4082817047F0B503460024D5
:1030200000260025002040F66A17B94200D100BFF3
:103030001846C1F3421401F01F06012707FA06F5EE
:10304000012C01D10C3004E0022C01D1103000E041
:1030500014301AB107682F43076002E00768AF43D6
:103060000760F0BD1AB1838A0B43838202E0838A32
:103070008B4383827047028A4FF6F0731A400282B4
:10308000028A0A430282704782894FF2FF731A4014
:10309000828182890A438281704721B1828942F00C
:1030A0000202828104E082894FF6FD731A40828118
:1030B0007047028A4FF6DF731A400282028A0A437F
:1030C0000282704721B1028A42F48042028204E007
:1030D000028A4BF6FF731A4002827047C1F308025E
:1030E0008280704701468888C0F308007047818954
:1030F00041F0010181817047028BD2B20283028BC1
:1031000042EA012202837047028B02F47F4202836B
:10311000028B0A430283704721B1828A42F0200267
:10312000828204E0828A4FF6DF731A4082827047FF
:1031300021B1828A42F01002828204E0828A4FF634
:10314000EF731A408282704721B1828A42F00802EE
:10315000828204E0828A4FF6F7731A4082827047B7
:1031600021B1828942F40042828103E08289C2F364
:103170000E028281704721B1828A42F4006282820B
:1031800004E0828A4FF2FF731A4082827047828A7B
:103190004FF6FB731A408282828A0A43828270470A
:1031A00021B1828A42F00202828204E0828A4FF6D2
:1031B000FD731A408282704702460020B1F5007FFD
:1031C00000D100BF13880B400BB1012000E00020AC
:1031D000704701F40072B2F5007F00D100BFCA430E
:1031E0000280704770B502460024002300250020AD
:1031F00040F66A16B14200D100BFC1F3421501F09A
:103200001F03012606FA03F3012D02D196893340EC
:1032100006E0022D02D1168A334001E0968A33403F
:103220000C12012606FA04F41688344013B10CB1CE
:10323000012000E0002070BD10B50022002340F600
:103240006A14A14200D100BF0A1201249440A3B223
:10325000DC43048010BD0000003801400044004001
:1032600000480040004C00400050004010B56FF096
:103270000400FDF718FA2E4800682E49B0FBF1F063
:103280002D4908700846007800EB4001C1EBC010E2
:103290004FF6FF7101EAC0002849088010BD0146C1
:1032A000254A12784A434FF0E0235A6100229A617E
:1032B0001A46126942F001021A6100BF4FF0E02283
:1032C000106900F001021AB100F48032002AF5D032
:1032D0004FF0E022126922F001024FF0E0231A6160
:1032E00000229A6170470146144A12884A434FF0FF
:1032F000E0235A6100229A611A46126942F00102E3
:103300001A6100BF4FF0E022106900F001021AB10B
:1033100000F48032002AF5D04FF0E022126922F04A
:1033200001024FF0E0231A6100229A617047000009
:103330000400002000127A002C0000202E00002043
:1033400010B501209D490860FFF7CDFF00209C4982
:10335000C1F8940110BD70B50546002405E0601C5D
:10336000C4B2C82C01DD002070BD02219548FEF7D3
:1033700034FE0028F3D029469248FEF7DBFD0024F6
:1033800005E0601CC4B2C82C01DD0020ECE701217F
:103390008C48FEF722FE0028F3D08A48FEF7CCFDC9
:1033A000C0B2E1E770B5054600208449091D0860F8
:1033B0000720FFF7D0FF032406E0E10025FA01F122
:1033C000C8B2FFF7C8FF641E002CF6DA01207B4963
:1033D000091D0860FFF7B4FF0120FFF784FF70BDEF
:1033E00010B50120754908310860FFF77CFF002007
:1033F0007349C1F89C010120FFF775FF10BD10B59E
:1034000004467148848101466E48FEF7BDFC0121E7
:103410006C48FEF75EFD10BD08B501211820FEF7CF
:1034200029FC01218803FEF732FCC020ADF8000022
:1034300010208DF8030003208DF8020069466348D0
:10344000FEF75CF94FF46040ADF8000018208DF8ED
:10345000030003208DF8020069465D48FEF74EF92F
:103460004FF460415A48FEF7F6F9C0215748FEF77D
:10347000F2F90020544908804FF4827048800020FF
:1034800088800220C88001200881400248813820BD
:1034900088810020C881072008824A48FEF774FC12
:1034A00001214848FEF715FDFF20FFF754FF1820C3
:1034B000FFF7A5FFFFF794FF4648FFF773FF2020B3
:1034C000ADF8000010208DF8030003208DF80200F5
:1034D00069463E48FEF712F908BDFEB506460020D3
:1034E000019002900024009000BF06E0C10026FA7F
:1034F00001F1C9B20DF80010401C0428F6DB0020D1
:103500000EE0042808DA1DF80010334A02FB0144DB
:1035100001AA1454240A02E001AA1454240A401CEB
:103520000628EEDB00202549091D08600220FFF770
:1035300012FF052504E001A9485DFFF70CFF6D1E91
:10354000002DF8DA01201D49091D0860FFF7F8FE7B
:10355000FEBD70B505460C46204805FB00F630461A
:10356000FFF7BBFF00201549091D08600820FFF781
:10357000F2FE2012FFF7EFFEE0B2FFF7ECFE0120B3
:103580000F49C1F89801FFF7DBFE00200B49091D28
:1035900008600920FFF7DFFE2012FFF7DCFEE0B233
:1035A000FFF7D9FE01200649C1F89801FFF7C8FED0
:1035B00005EB8501080100F0DAF870BD94012242A4
:1035C0000000224200380040E404002000100140C6
:1035D000000C014021004A108F79150040420F0075
:1035E00008B501212020FEF745FB43F24800ADF865
:1035F000000003208DF8020010208DF803006946BA
:103600000148FEF77BF808BD00140140024607E0C0
:1036100010780B78984201D000207047521C491C4A
:1036200010780028F4D108780028F1D10120F4E7BF
:1036300002E000210170401C01780029F9D1704797
:103640002DE9F04105460F464FF0000800262846B8
:1036500002F0B4F810B90020BDE8F08100241BE0AE
:10366000285D202809D0285D06EB860107EB410183
:1036700001F8080008F101080DE000E0641C601C7E
:10368000285C2028FAD0601C285C08B9701CE3E78D
:10369000761C4FF00008641C284602F08FF8A04208
:1036A000DED8701CD8E7000000B585B001210420E9
:1036B000FEF7E0FA01214807FEF7E9FA3020ADF8FD
:1036C000100000208DF8130003208DF8120004A9CB
:1036D0003B48FEF713F830213948FEF7BCF80020CC
:1036E0000090019002900220039069460020FDF7AF
:1036F0002CFA69461020FDF728FA01210020FDF779
:1037000041FA01211020FDF73DFA00210846FDF79E
:103710009AFA00210846FDF7A3FA05B000BD2DE98D
:10372000F0470446204602F0D7F98146254948462D
:1037300002F025F981464FF08B41484602F0EDF842
:10374000824602F0E2F907464FF066321E4B02F065
:1037500054F9054602F0ECF98146484602F0C1F9F9
:1037600085B229460020FDF76EFABDE8F0872DE905
:10377000F0470446204602F0AFF981461149484619
:1037800002F0FDF881464FF08B41484602F0C5F843
:10379000824602F0BAF907464FF066320A4B02F051
:1037A0002CF9054602F0C4F98146484602F099F921
:1037B00085B229460020FDF753FABDE8F0870000E6
:1037C0000008014000007A4466660A407FB505465D
:1037D0000C461648FEF738FC01210420FEF757FA84
:1037E000ADF80850ADF804400020ADF80A00ADF87F
:1037F000060001A90D48FEF7FBFC012211460B480B
:10380000FFF76DF81E208DF8000000208DF80100F4
:1038100003208DF8020001208DF803006846FCF7B4
:10382000F8FE00210148FFF73FF87FBD0008004087
:1038300008B501214020FEF71DFA0121E748FEF7F7
:103840002EF87F20ADF8000048208DF8030069466F
:10385000E348FDF753FF08BD10B5044614B101203D
:10386000E0490870DF48007800285AD00121DC4880
:10387000FDF7D7FFE8B10221D948FDF7D2FFC0B16B
:103880000421D748FDF7CDFF98B10821D448FDF7B2
:10389000C8FF70B11021D248FDF7C3FF48B1202105
:1038A000CF48FDF7BEFF20B14021CD48FDF7B9FF5D
:1038B00078BB0A20FFF717FD0020CA4908700121D4
:1038C000C748FDF7AEFF08B9012010BD0221C4486A
:1038D000FDF7A7FF08B90220F7E70421C048FDF76C
:1038E000A0FF08B90320F0E70821BD48FDF799FFC4
:1038F00008B90420E9E71021B948FDF792FF08B99B
:103900000520E2E72021B648FDF78BFF10B906201D
:10391000DBE706E04021B248FDF783FF68BB0720E4
:10392000D3E70121AE48FDF77CFF012825D1022114
:10393000AB48FDF776FF01281FD10421A848FDF709
:1039400070FF012819D10821A548FDF76AFF012859
:1039500013D11021A248FDF764FF01280DD12021C9
:103960009F48FDF75EFF012807D140219C48FDF7E5
:1039700058FF012801D19B4908700020A5E710B528
:1039800002219748FDF74DFF98B96420FFF7ABFC83
:1039900002219348FDF745FF20B993480068401E77
:1039A0009149086090480068C0F128018FA002F09A
:1039B0004FFC04218A48FDF734FF98B96420FFF7D3
:1039C00092FC04218648FDF72CFF20B98648006848
:1039D000401C8549086084480068C0F1280183A024
:1039E00002F036FC08217E48FDF71BFF98B96420E1
:1039F000FFF779FC08217A48FDF713FF20B97D48CD
:103A00000078401E7B4908707B480278794801782D
:103A10007AA002F01DFC10217148FDF702FF98B951
:103A20006420FFF760FC10216D48FDF7FAFE20B915
:103A300070480078401C6F4908706F4802786D48E4
:103A400001786EA002F004FC6F480078002833D1A2
:103A500040216348FDF7E5FE98B96420FFF743FC79
:103A600040215F48FDF7DDFE20B963480078401C27
:103A700061490870604802785E4801785FA002F0F2
:103A8000E7FB20215648FDF7CCFE00283CD16420FE
:103A9000FFF729FC20215248FDF7C3FE20B9564804
:103AA0000078401E54490870534802785148017804
:103AB00052A002F0CDFB27E053480078012823D123
:103AC00040214748FDF7ADFE60B96420FFF70BFCCD
:103AD00040214348FDF7A5FE20B94C480078401C22
:103AE0004A49087020213E48FDF79BFE60B96420DA
:103AF000FFF7F9FB20213A48FDF793FE20B9434830
:103B00000078401E4149087001213548FDF789FEC3
:103B100030BB00203C4908704FF47A70FFF7E3FB9C
:103B200001212F48FDF77DFED0B9012036490870EC
:103B30004FF47A70FFF7D7FB01212948FDF771FE9A
:103B400070B90120304908704FF47A70FFF7CBFB51
:103B500001212348FDF765FE10B901202A490870AC
:103B600025480078052803DA05202349087006E077
:103B700021480078642802DD64201F4908701D4830
:103B80000078012803DA01201A49087006E0194874
:103B90000078282802DD282016490870124800689D
:103BA000002803DA00201049086006E00E4800688B
:103BB000282802DD28200C490860144800780128D4
:103BC00003DA01201149087006E01048007828281F
:103BD00002DD28200D49087010BD000000023000F1
:103BE00000180140420000203C00002048202564CD
:103BF0000D0A000039000020380000204120256413
:103C00002025640D0A000000410000204000002033
:103C100010B586B0044601210420FEF72BF80121DF
:103C20004804FEF734F801214804FEF723F8614800
:103C3000FFF718F90420ADF8140003208DF81600E2
:103C400018208DF8170005A95B48FDF757FD0820DF
:103C5000ADF8140004208DF8170005A95648FDF7AB
:103C60004DFD26208DF8000003208DF801008DF811
:103C7000020001208DF803006846FCF7CAFC01949D
:103C80000020ADF80800ADF80A00ADF80C00ADF862
:103C900010000C20ADF80E0001A94648FFF725F9E9
:103CA000012240F225514348FFF7B7F9012141486D
:103CB000FFF7A7F906B010BD70B504460D46E1B296
:103CC0003C48FFF70BFA00BF80213A48FFF774FA2F
:103CD0000028F9D0204670BD10B540F22551354876
:103CE000FFF780FA10B33348FFF7FCF9C4B233484A
:103CF000008800F40040C8B93048008800F48040D3
:103D000060B10A2C03D000202C49088020E02B4809
:103D1000008840F400402949088019E00D2C06D1A4
:103D20002648008840F480402449088010E0234859
:103D30000088C0F30D0022490C5420480088401C24
:103D40001E49088008460088C72801DD0020088039
:103D500010BD10B504461948008800F4004038B181
:103D60001748A0470020154908801548FFF760FC58
:103D700010BD30B5A1B005460C466C2106A801F077
:103D800006FD142101A801F002FD01AB06AA0DA158
:103D9000204601F029FD0DF11D0101A8FFF750FC9F
:103DA000C0B28DF881006A2206A9284601F0D6FC2F
:103DB00021B030BD00440040000801404400002014
:103DC000F6040020257320255B5E3B5D00000000AB
:103DD000F74908807047F649891C08807047F44805
:103DE000801C00887047F24A1080921C1180704736
:103DF00010B504462046FFF7EBFF0520FFF74FFA0A
:103E0000FFF7EDFF10BDEB48C079E9490880704726
:103E1000E749891C0880704730B5014601F01F044E
:103E2000C1F34513CA0AE50205EB43151544A8B2D0
:103E300030BD00BF011EA0F10102D0B2FAD170471F
:103E400010B503460C46DB48808849F24131884270
:103E500005D0D848808846F60401884214D1D54957
:103E6000087AFFF7B5FF1812FFF7B5FFD8B2FFF7D2
:103E7000B2FFD049487AFFF7ABFF2012FFF7ABFF44
:103E8000E0B2FFF7A8FF12E0CA488079012804D108
:103E9000C8480088401EC01A83B2C649087A19462D
:103EA000FFF7A1FFC349487A2146FFF79CFF10BDE9
:103EB0002DE9F04105460E4600240027A046BD48E6
:103EC0000088A84203DDBB484088B04202DC0020E5
:103ED000BDE8F08131462846FFF7B2FFB54880883B
:103EE00049F24131884205D0B248808846F6040143
:103EF000884203D12E20FFF76BFF02E02220FFF75C
:103F000067FFAC48808849F22031884202D1022004
:103F1000FFF78FFFA648801C008800B10024022014
:103F2000FFF787FFA248801C0488A248808849F2D6
:103F3000413188420CD10220FFF77BFF9C48801C56
:103F4000B0F80080E7B24FF6FF7000EA072708E0FC
:103F50009848808846F60401884202D19448801C23
:103F600004889448808849F22531884216D09148C7
:103F7000808844F23551884210D08E488088091FCD
:103F800088420BD08B48808848F68911884205D03A
:103F9000884880884BF20551884201D1204697E736
:103FA0008448808849F24131884207D1E012C0023A
:103FB000B91240EA411040EAE82089E72046FFF7BD
:103FC0002BFF85E700B57B48808849F24131884264
:103FD00005D07848808846F60401884203D129201C
:103FE000FFF7F6FE04E040F273110720FFF7FBFE37
:103FF00000BD00B56F48808849F24131884205D044
:104000006C48808846F60401884203D12820FFF7D7
:10401000DFFE03E000210720FFF7E5FE00BD70B5DD
:104020000446002300266348807901281ED1614898
:10403000808846F60401884218D0082C15D2DFE8A3
:1040400004F00406080A0C0E101206240DE00724E2
:104050000BE0042409E0052407E0012405E0002426
:1040600003E0032401E0022400BF00BF5148808820
:1040700049F24131884205D04E48808846F6040115
:1040800088427CD1082C1CD2DFE804F00406090C1D
:104090000F12151800BF14E043F0800311E043F045
:1040A00040030EE043F0C0030BE043F0200308E0C0
:1040B00043F0600305E043F0A00302E043F0E003B7
:1040C00000BF00BF362643F008033A48808846F612
:1040D0000401884201D143F0020319463046FFF73C
:1040E00082FE03F0200068B13248008831494988D7
:1040F000884214DA2F48058840882E4908800846EF
:1041000045800CE02B4800882A494988884206DD12
:104110002848058840882749088008464580254961
:10412000087AFFF755FE0020FFF755FE0020FFF745
:1041300052FE20490988491EC1F30F20FFF74BFEAC
:104140001C490978491EC8B2FFF745FE1949487A4B
:10415000FFF73EFE0020FFF73EFE0020FFF73BFE8C
:1041600014494988491EC1F30F20FFF734FE114955
:104170008978491EC8B2FFF72EFE36E0FFE7082C0B
:1041800020D2DFE804F004070A0D0F12191C43F0D7
:10419000300317E043F0100314E043F0200311E074
:1041A00000BF0FE043F038030CE043F0280309E0C0
:1041B000FEFF0160BE05002043F0180302E043F05B
:1041C000080300BF00BFFE48808848F68911884276
:1041D00004D1112646F24000034302E0032643F4D3
:1041E000805319463046FFF7FEFD70BD30B50446DA
:1041F0000D4629462046FFF723FEFFF704FEF1484F
:104200000088F149088030BD30B503460C4615469C
:10421000EB48808849F24131884205D0E8488088DF
:1042200046F60401884214D1E549087AFFF7D0FD2B
:104230001812FFF7D0FDD8B2FFF7CDFDE049487A5C
:10424000FFF7C6FD2012FFF7C6FDE0B2FFF7C3FD82
:1042500012E0DB488079012804D1D9480088401E4B
:10426000C01A83B2D649087A1946FFF7BCFDD44973
:10427000487A2146FFF7B7FDD148C079D249891E57
:104280000880881C058030BD10B50446002C3DD147
:10429000CB498871F02008804FF4A0704880084610
:1042A000808849F24131884205D0C548808846F669
:1042B0000401884214D12C20C149C8712A200872F7
:1042C0002B2048720846808846F6040188424ED169
:1042D0004FF4A070BA4908804FF4F070488046E06F
:1042E000B748808848F68911884207D12220B4490E
:1042F000C8714E2008724F20487238E02220B04921
:10430000C871202008722120487230E0AC488088B3
:1043100046F6040188422AD00120A94988714FF449
:10432000A0700880F02048800846808849F241311A
:10433000884207D12C20A249C8712A2008722B205C
:10434000487214E09E48808848F68911884207D157
:1043500022209B49C8714F2008724E20487206E007
:1043600022209749C871212008722020487200201D
:10437000FFF755FE10BD70B504460026904805882D
:104380004088454300210846FFF75AFDFFF73BFDF3
:1043900000BF02E08C480480761CAE42FAD370BDA8
:1043A00000B59FB001210802FDF757FC01216920EB
:1043B000FDF760FC0120ADF8780010208DF87B003F
:1043C00003208DF87A001EA98048FDF797F94CF27A
:1043D0003370ADF8780018208DF87B0003208DF83D
:1043E0007A001EA97A48FDF789F94FF68070ADF87A
:1043F000780018208DF87B0003208DF87A001EA924
:104400007448FDF77BF94FF40860ADF87800182088
:104410008DF87B0003208DF87A001EA96C48FDF70B
:104420006DF901200890002009900F200A900020CB
:104430000B900C900D900E90019002900320039031
:10444000002004900590069007900F901090119016
:104450001020129000201390159014901690179031
:104460004FF480501890002019904FF480401A901B
:1044700000201B9008A81C9001A81D900FA8FCF715
:1044800023FE01210020FCF787FF3220FEF72BFFDF
:1044900001210020FFF7A7FC3220FEF724FF0020B7
:1044A000FFF7A6FC4649888008468088FF280ADB7B
:1044B000084680884FF6FF71884204D040488088C3
:1044C000B0F5134F4BD1D320FFF782FCFFF787FCE9
:1044D000FFF785FCFFF783FC394988800846808810
:1044E0004FF6FF7101EA002035498880FFF777FC1D
:1044F000334989880843324988800846808849F2D0
:10450000413188421BD0BF20FFF762FCFFF767FCF8
:10451000FFF765FCFFF763FCFFF761FC2849888023
:10452000084680884FF6FF7101EA00202449888000
:10453000FFF755FC22498988084321498880204893
:10454000808849F24131884209D01D48808846F66A
:104550000401884203D049F2413019498880184843
:10456000808849F2413188427DD01548808846F6DE
:1045700004018842F8D01248808849F225318842E7
:10458000F2D00F488088C91C8842EDD00C48808842
:1045900049F22031884267D100210846FFF723FC09
:1045A0004FF480710120FFF71EFC4FF4E061022000
:1045B000FFF719FC41F230010320FFF714FC0BE078
:1045C000BE0500204600002000000260000C0140F3
:1045D000001401400018014000210420FFF703FCF3
:1045E00040F202210820FFF7FEFB00210920FFF71F
:1045F000FAFB00210A20FFF7F6FB01210C20FFF750
:10460000F2FB00210D20FFF7EEFB00210F20FFF74A
:10461000EAFB3220FEF767FE40F201110720FFF7A8
:10462000E2FB3220FEF75FFE4FF486511020FFF7C9
:10463000DAFB07211120FFF7D6FB4FF48871122017
:10464000FFF7D1FB4FF430611320FFF7CCFB0021C3
:104650002920FFF7C8FB44F210012B20FFF7C3FB12
:104660000021502001E07EE052E0FFF7BCFBEF218B
:104670005120FFF7B8FB00215220FFF7B4FB40F2B6
:104680003F115320FFF7AFFB4FF41C516020FFF7A1
:10469000AAFB01216120FFF7A6FB00216A20FFF79A
:1046A000A2FB00218020FFF79EFB00218120FFF765
:1046B0009AFB00218220FFF796FB00218320FFF761
:1046C00092FB00218420FFF78EFB00218520FFF75D
:1046D0008AFB10219020FFF786FB00219220FFF734
:1046E00082FB01219320FFF77EFB4FF48871952018
:1046F000FFF779FB00219720FFF775FB0021982039
:10470000FFF771FB40F273110720FFF76CFB2AE003
:10471000FC48808849F23131884224D0F9488088A9
:1047200045F2084188421ED0F648808841F2055182
:10473000884218D0F34880884BF20551884212D045
:10474000F04880884CF2055188420CD0ED488088B2
:1047500048F68911884206D0EA48808844F23151EF
:10476000884200D000BF0020FFF78EFD0120E649FF
:1047700008604FF6FF70FFF7FEFD1FB000BD2DE98A
:10478000F04F05460E4617469846DDF824A04FF038
:10479000000B781B401C1FFA80FB344613E02146B7
:1047A0002846FFF74DFBFFF72EFB4FF0000906E010
:1047B0005046FFF710FB09F101001FFA80F9D945B7
:1047C000F6DB601C84B24445E9DDBDE8F08F2DE9DD
:1047D000F84F07460D4690469946DDF828B0A8EBFD
:1047E0000700401C80B20090A9EB0500401C1FFA96
:1047F00080FA002415E0281981B23846FFF720FB23
:10480000FFF701FB002607E004FB0A603BF81000FD
:10481000BE490880701C86B200988642F4DB601C9A
:1048200084B25445E7DBBDE8F88F2DE9FF4F84B033
:1048300081468A460020039002900698A0EB090565
:104840000798A0EB0A06CDF80490CDF800A0002D43
:1048500001DD012705E00DB9002702E04FF0FF3729
:104860006D42002E02DD4FF0010806E016B94FF050
:10487000000802E04FF0FF387642B54201DD2C46D9
:1048800000E034464FF0000B21E0009A91B2019A0B
:1048900090B2FFF7ABFC0398284403900298304491
:1048A00002900398A04205DD0398001B0390019835
:1048B000384401900298A04205DD0298001B029046
:1048C0000098404400900BF101001FFA80FB601C2F
:1048D0008345DADD08B0BDE8F08FF0B504460D463B
:1048E00016461F462B46324629462046FFF79DFFB7
:1048F0003B46224629462046FFF797FF3B46324675
:1049000039462046FFF791FF3B463246294630465E
:10491000FFF78BFFF0BD2DE9F04306460F469046AA
:10492000002445460320A0EB48093CE07A1B91B2E5
:10493000321990B2FFF75AFC3A1B91B2721990B239
:10494000FFF754FC3A1991B2721990B2FFF74EFC7E
:104950007A1991B2321990B2FFF748FC7A1991B2E4
:10496000321B90B2FFF742FC3A1991B2721B90B21F
:10497000FFF73CFC7A1B91B2321B90B2FFF736FC7A
:104980003A1B91B2721B90B2FFF730FC641CB9F174
:10499000000F03DAA000801D814404E0601B80004A
:1049A0000A3081446D1EAC42C0DDBDE8F0832DE9C4
:1049B000F84F05460F4690461E4600975448B0F8FB
:1049C0000090A8F1200000F0FF080A9800284ED1BE
:1049D000002449E00C2E07D108EB48004D4901EBBB
:1049E000800010F804A004E04B4800EB081010F819
:1049F00004A04FF0000B31E00AF0800018B14448E9
:104A0000A0F8009003E045480088414908803946F5
:104A10002846FFF7EBFB4FEA4A604FEA106A781C22
:104A200087B238480088A84204DC3948A0F80090D2
:104A3000BDE8F88F0098381AB0420BD1009F681C6F
:104A400085B230480088A84203DC3148A0F80090C5
:104A5000EEE706E00BF1010000F0FF0BBBF1080FE1
:104A6000CADB00BF601CC4B2B442B3DB44E0002424
:104A700040E00C2E07D108EB4800264901EB8000EE
:104A800010F804A004E0244800EB081010F804A07B
:104A90004FF0000B28E00AF0800018B13946284694
:104AA000FFF7A4FB4FEA4A604FEA106A781C87B20E
:104AB00014484088A84203DC1548A0F80090B7E7E6
:104AC0000098381AB0420BD1009F681C85B20D487F
:104AD0000088A84203DC0E48A0F80090A8E706E092
:104AE0000BF1010000F0FF0BBBF1080FD3DB00BF9F
:104AF000601CC4B2B442BCDB0548A0F8009000BF03
:104B000096E70000BE05002080812142000002607F
:104B1000460000208C64000800690008480000205E
:104B200010B50246012000E050430B1EA1F1010424
:104B3000E1B2F9D110BD2DE9FF4F81B00746914692
:104B40001E460E9D4FF0000A002439E0301B401E27
:104B5000C1B20A20FFF7E4FFB9FBF0F00A21B0FB75
:104B6000F1F201FB1208BAF1000F16D1701EA0423B
:104B700013DDB8F1000F0ED10020AB4605EBDB7161
:104B8000491001FB0471009088B22B462022029943
:104B9000FFF70DFF12E04FF0010A0020AB4605EBD6
:104BA000DB71491001FB0471009088B208F13001FB
:104BB000CAB22B460299FFF7FAFE00BF601CC4B2CE
:104BC000B442C3DB05B0BDE8F08F2DE9FF4F82B0E2
:104BD000064692461F46DDE90F4800200190002559
:104BE0004DE0781B401EC1B20A20FFF799FFBAFBC7
:104BF000F0F00A21B0FBF1F201FB1209019850BB61
:104C0000781EA84227DDB9F1000F22D108F08000FC
:104C100078B108F00100A34604EBDB71491001FBF9
:104C20000561009088B2234630220399FFF7BFFE4A
:104C30000EE008F00100A34604EBDB71491001FB14
:104C40000561009088B2234620220399FFF7AFFE4A
:104C500013E00120019008F00100A34604EBDB7192
:104C6000491001FB0561009088B209F13001CAB218
:104C700023460399FFF79BFE00BF681CC5B2BD42E7
:104C8000AFDB06B0BDE8F08F2DE9F84704460D46CE
:104C900090469946DDE9096704F0FF0A08EB040035
:104CA0001FFA80F809EB05001FFA80F916E0444569
:104CB00002DB5446A81985B24D4500DB14E0002004
:104CC00000903A78334629462046FFF770FE30467A
:104CD00006EBD07104EB61018CB27F1C38787E2822
:104CE00002DC38782028E2DA00BFBDE8F88700004F
:104CF0002DE9F04105460E461446434807880480D6
:104D000031462846FFF772FA3F480780BDE8F08138
:104D10002DE9F05F06460C4617469846A346002547
:104D20002AE017F805904FF0000A1FE009F0800014
:104D300028B1424621463046FFF7DAFF04E021461B
:104D400030460A9AFFF7D4FF4FEA49604FEA1069EC
:104D5000601C84B2A4EB0B00102803D15C46701CCD
:104D600086B206E00AF1010000F0FF0ABAF1080F6E
:104D7000DCDB00BF681CC5B2202DD2DBBDE8F09F94
:104D80002DE9F84F0546884616461F46DDE90A9A82
:104D900000240DE006EB44124B4641462846CDF870
:104DA00000A0FFF7B5FF05F1100085B2601CC4B28A
:104DB000BC42EFDBBDE8F88F2DE9F04782460C4698
:104DC00015461E46089F4FF0000918E02146504640
:104DD000FFF736F8FFF717F84FF0000807E037F84D
:104DE000020BFEF7F8FF08F101001FFA80F8A84552
:104DF000F5DB601C84B209F101001FFA80F9B145AE
:104E0000E4DBBDE8F0870000460000202DE9FC410E
:104E100006460F4614461D46208820816088608122
:104E20006048008860490988CDE9001061882088C1
:104E30002B463A46FFF7A4FF208800EB05102080A0
:104E4000608860802068306060687060A068B060D2
:104E5000BDE8FC812DE9F04105460E4614461F468B
:104E6000DDF8188060886081B8F1000F01D02089DA
:104E700000E0362020806088183060803B46224663
:104E800031462846FFF7C2FFBDE8F081FEB5064671
:104E90000F4614461D462088208160886081434A61
:104EA000108800EBD0725310294605EBD1725210D6
:104EB000A3EB021222802B46224639466846FFF7B2
:104EC000A5FF00982060019860600298A06060884B
:104ED0001830608010202081206830606068706029
:104EE000A068B060FEBD2DE9FC4106460D461446A3
:104EF0002088208160886081284600F05FFCC00621
:104F0000070E1020CDE900056188208810233A465D
:104F1000FFF7BAFE2088384420802068306060683F
:104F20007060A068B060BDE8FC81F0B589B007464C
:104F30000D4616461C462A461DA104A801F098F904
:104F4000314604A800F02EFC224604A901A8FFF770
:104F5000CAFF20892080608960802068386060688E
:104F60007860A068B86009B0F0BD0EB5FFF718FA18
:104F700036201049088028204880362008812820C3
:104F80004881362088802820C8800A230A460A499A
:104F90006846FFF77BFF074840881830054948807E
:104FA0000EBD00004800002046000020BE05002085
:104FB00025640000C8050020580000202DE9F047B6
:104FC00005460E4617469846DDE9089AF9480468F2
:104FD000242001F025FAF74908607CB936200968D9
:104FE00008806888F349096848803620F1490968D3
:104FF00088806888EF490968C88010E060881830A8
:10500000EC49096848803620EA4909680880E9497E
:1050100009688880E0881830E6490968C880E54852
:10502000006880F819A0E3480068C660E14800689D
:105030000761E0480068C0F81480DE48006880F826
:105040001890DD48006820B9DA480068DA4908603D
:1050500005E0D8480068E061D64800680462D64898
:105060000068D4490968C861D2480068D249096813
:105070000862BDE8F0873EB50446A0882080E0883D
:105080006080237E22466846E168FFF7BFFE224625
:10509000CAA16846FFF727FF23466846D4E90412F1
:1050A000FFF743FF3EBD70B50446254600BF2046CE
:1050B000FFF7E1FFE469AC42F9D170BD1CB50120F6
:1050C0000521BFA30A46CDE90010BE49BE48FFF73F
:1050D00075FF03200521BDA3CDE90010BD4802885E
:1050E000BD49B948FFF76AFF02200521B7A34FF475
:1050F0007572CDE90010B949B348FFF75FFF04208E
:105100000521B7A30122CDE90010B749AE48FFF74A
:1051100055FFA9480068FFF7C6FFA7480068A549E2
:105120000860B2A01021A34ACDE900101268D1880E
:10513000A04A12689288183A90B210231A46FFF7D4
:10514000A3FDC8210520FEF704FA4FF47570FEF7A1
:10515000E6FA1CBD7CB50446012C31D1C820FEF70F
:10516000C2F894480068C069924908604FF6FF7021
:105170000D4600902D682D6AED881035ABB20D46B6
:105180002D682D6AAA880D462D682D6AE988894DFB
:105190002D682D6AAD88183DA8B2FFF7F0FA93A0EC
:1051A0001021844ACDE900101268D188814A126822
:1051B0009288183A90B210231A46FFF765FD32E044
:1051C000022C30D1C820FEF78EF87A480068006AB9
:1051D000784908604FF6FF700D4600902D68ED6924
:1051E000ED881035ABB20D462D68ED69AA880D46E5
:1051F0002D68ED69E9886F4D2D68ED69AD88183D22
:10520000A8B2FFF7BCFA79A010216A4ACDE90010D4
:105210001268D188674A12689288183A90B21023AF
:105220001A46FFF731FD032C06D0042C7ED0052C46
:105230007DD0072C79D136E15E4800680069401CBA
:105240005C49096808615B480068407E012822D1FA
:105250003220FEF748F85748006800692E2803DA24
:1052600054480068006900E02E205249096808612E
:1052700050480068007C5E490870564801885C48C8
:105280000078FEF766F9534802885948017859A01A
:1052900000F0DEFF45E047480068407E022819D153
:1052A0003220FEF720F843480068006940F6FF719D
:1052B000884203DA3F480068006901E040F6FF7069
:1052C0003C49096808613B490968098A88B2FEF7C8
:1052D00026FA26E037480068407E032821D1354869
:1052E0000068006940F6E341884203DA314800680B
:1052F000006901E040F6E3402E49096808612D4845
:105300000068008A334908800846018838480078D8
:10531000FEF71FF92F4802883548017835A000F0C4
:1053200097FF25480068FFF7BEFEC3E000E0A0E05D
:10533000204800680069401E1E49096808611D4830
:105340000068407E012822D13220FDF7CCFF1948A9
:1053500000680069012803DD16480068006900E064
:10536000012014490968086112480068007C20493E
:105370000870184801881E480078FEF7EAF81548BA
:1053800002881B4801781BA000F062FF6CE009480E
:105390000068407E02283FD13220FDF7A4FF054877
:1053A00000680069B0F5757F2ADD02480068006971
:1053B00028E00000500000204C0000203A000000CF
:1053C0002020200098010020C80500202020202057
:1053D0000000000054000020D80200203802002005
:1053E0002020202020000000B80300202D3E0000D7
:1053F00057000020412025642025640D0A0000008C
:105400004FF475702D49096808612C490968098AAB
:1054100088B2FEF784F927E028480068407E032818
:1054200022D13220FDF75FFF24480068006901287F
:1054300003DD22480068006900E001201F49096877
:1054400008611E480068008A1D49088008460188D6
:105450001C480078FEF77DF8194802881948017841
:10546000AFF2700000F0F4FE17480068FFF71BFE73
:1054700020E012480068407E042813D113480078C9
:1054800008B9012000E000201049087008460078A3
:1054900020B101210E48FDF707FA03E000210C4876
:1054A000FDF702FA06E0064801880648007800F099
:1054B00086F800BF00BF7CBD704700005000002090
:1054C00054000020570000204C000020560000200F
:1054D0000008004010B586B0044601211020FCF7FA
:1054E000C9FB0121C804FCF7D2FB4FF48060ADF882
:1054F000140003208DF8160018208DF8170005A958
:105500003D48FCF7FBF84FF40060ADF814000420B0
:105510008DF8170005A93848FCF7F0F834208DF80D
:10552000000003208DF801008DF8020001208DF8A5
:1055300003006846FBF76DF801940020ADF8080001
:10554000ADF80A00ADF80C00ADF810000C20ADF875
:105550000E0001A92948FDF7C8FC012240F225519F
:105560002648FDF75AFD01212448FDF74AFD06B003
:1055700010BD00BF2149098801F040010029F9D080
:105580001E49091D0880704710B503460C460022CD
:1055900000BF985CFFF7EDFF501C82B2A242F8DB1F
:1055A00010BD70B50446204600F008F985B22946C2
:1055B0002046FFF7E9FF0A20FDF795FE70BD7FB595
:1055C00004460D460EA0FFF7ECFF2B46224610A125
:1055D000684600F04DFE6846FFF7E3FF7FBD10B55B
:1055E0004FF4E130FFF776FF4FF47A70FDF77BFE62
:1055F0000A48FFF7D6FF10BD00100140004C0040E4
:1056000041542B43495053454E443D31300D0A001F
:105610003120256420256420380D0A009D040020D7
:1056200008B501210846FCF718FB01214FF404706E
:10563000FCF720FB0220ADF8000000208DF80300ED
:1056400069464248FCF75AF808BD00B591B0404899
:10565000FBF736FB3F4806903F4807900020089034
:105660000120099000200A900B904FF480700C905C
:1056700080000D9020200E9000020F9000201090CE
:1056800006A93348FBF7BEFB01213148FBF7E5FBD8
:10569000002001908DF8080001208DF809004FF4DA
:1056A000602003900020049001208DF8140001A9CF
:1056B00028484C38FBF73DF84FF44040FCF73EFAE1
:1056C000052301220B2123484C38FBF7CAF801219E
:1056D00020484C38FBF764F801211E484C38FBF792
:1056E00054F81C484C38FBF772F800BF19484C3886
:1056F000FBF772F80028F9D116484C38FBF776F81A
:1057000000BF14484C38FBF776F80028F9D1012186
:1057100010484C38FBF779F811B000BD10B5FFF711
:105720007FFFFFF792FF10BD0146002211B90A4822
:1057300000887047002003E0074B1B881A44401C78
:105740008842F9DBB2FBF1F290B2F2E700100140BF
:10575000080002404C240140D404002040EA010328
:105760009B0703D009E008C9121F08C0042AFAD217
:1057700003E011F8013B00F8013B521EF9D27047DB
:10578000D2B201E000F8012B491EFBD27047002283
:10579000F6E710B513460A4604461946FFF7F0FF30
:1057A000204610BD421E12F8013F002BFBD111F81C
:1057B000013B02F8013B002BF9D17047421C10F865
:1057C000011B0029FBD1801A704710B5002200E0B0
:1057D000521C835C8C5CA34201D1002BF8D1D8B25F
:1057E000E1B2401A10BD00000FB400B58DB010A991
:1057F00009900B9000914FF0FF300A9000200C9020
:1058000005480690054807906A4609A80F9900F0D8
:10581000C7F90DB05DF814FBBD5B0008DB5B000849
:105820002DE9FF5FD2E901A74FF000089169994681
:105830001446DDF838B0464601988847054659EACF
:105840000B0005D009E0A169761C01988847054640
:10585000216A284688470028F5D1681C03D05FEAF2
:10586000CA7005D015E04FF0FF3004B0BDE8F09FDE
:105870002068011D2160D0F800800AE05FEACA704C
:1058800001D108F8015BA169761C7F1E0198884749
:105890000546002F1ADD681C18D0B9F1000F0DD095
:1058A000E81705EBD060421120F01F0059F82210D4
:1058B0002A1A012090400142E0D107E0BBF1000F1D
:1058C000DCD1216A284688470028D7D0E1690198B1
:1058D0008847BBF1000F07D1002E05DD5FEACA70D3
:1058E00002D1002188F80010A068B84203DDBBF1A6
:1058F000000F03D017B16FF00100B6E73046B4E7F0
:1059000070B5064600F0C8FC046805460A2200216E
:10591000304600F073F92C6070BD80EA010210B5CA
:1059200002F00043400022D04A001FD0010E01EBDC
:105930001261C0F35600C2F3560240F4000042F474
:105940000002A0FB022000047F39140400D0401C98
:1059500050EA124001D44000491EC2B20C0604EBCA
:10596000D010401C4008802A02D003E0002010BD67
:1059700020F00100002900DA0020184310BD30B4E7
:1059800080EA010202F0004530F0004221F00040C0
:1059900013D090B1C30DD40DC2F31601C0F316009D
:1059A000E41A41F4000140F400027D34914201D335
:1059B000641C00E04900002C02DA30BC0020704773
:1059C0004FF400000023914201D3891A0343400899
:1059D0004FEA4101F7D151B1914202D14FF000415C
:1059E00005E002D24FF0010101E06FF0010103EB8D
:1059F000C450284430BC00F039B92DE9F04D81EA9B
:105A0000030404F0004B21F0004514464FF0000A57
:105A100023F0004150EA050220D054EA01021DD0D3
:105A2000C5F30A570246C5F31303C1F31300C1F3CC
:105A30000A5640F4801543F48013A7EB0608101BA8
:105A4000D64608F2FD3873EB050002D308F10108D1
:105A500001E092185B41B8F1000F03DA0020014623
:105A6000BDE8F08D00204FF48011064684460EE01C
:105A7000171B73EB050705D3121B63EB05030643E6
:105A80004CEA010C49084FEA300092185B4150EA99
:105A90000107EDD152EA030012D082EA040083EA42
:105AA0000501084305D0101BAB4106D2012200239B
:105AB00006E000224FF0004302E06FF001025310B5
:105AC0001AEB06004CEB085110EB0A0041EB0B01FE
:105AD000BDE8F04D00F001B996230022114600F018
